{
  "_format": "hh-sol-artifact-1",
  "contractName": "socialMedia",
  "sourceName": "contracts/socialMedia.sol",
  "abi": [
    {
      "inputs": [
        {
          "internalType": "uint256",
          "name": "index",
          "type": "uint256"
        }
      ],
      "name": "acceptFriendRequests",
      "outputs": [],
      "stateMutability": "nonpayable",
      "type": "function"
    },
    {
      "inputs": [
        {
          "internalType": "string",
          "name": "_profilePic",
          "type": "string"
        }
      ],
      "name": "changeProfilePicture",
      "outputs": [],
      "stateMutability": "nonpayable",
      "type": "function"
    },
    {
      "inputs": [
        {
          "internalType": "string",
          "name": "_userName",
          "type": "string"
        }
      ],
      "name": "changeUserName",
      "outputs": [],
      "stateMutability": "nonpayable",
      "type": "function"
    },
    {
      "inputs": [],
      "name": "convertCoinsToEth",
      "outputs": [],
      "stateMutability": "payable",
      "type": "function"
    },
    {
      "inputs": [
        {
          "internalType": "uint256",
          "name": "allPostIndex",
          "type": "uint256"
        }
      ],
      "name": "deleteAPost",
      "outputs": [],
      "stateMutability": "nonpayable",
      "type": "function"
    },
    {
      "inputs": [
        {
          "internalType": "uint256",
          "name": "index",
          "type": "uint256"
        }
      ],
      "name": "deleteFriendrequest",
      "outputs": [],
      "stateMutability": "nonpayable",
      "type": "function"
    },
    {
      "inputs": [
        {
          "internalType": "string",
          "name": "comment",
          "type": "string"
        },
        {
          "internalType": "uint256",
          "name": "allPostIndex",
          "type": "uint256"
        }
      ],
      "name": "doAComent",
      "outputs": [],
      "stateMutability": "nonpayable",
      "type": "function"
    },
    {
      "inputs": [
        {
          "internalType": "uint256",
          "name": "allPostIndex",
          "type": "uint256"
        }
      ],
      "name": "doALike",
      "outputs": [],
      "stateMutability": "nonpayable",
      "type": "function"
    },
    {
      "inputs": [
        {
          "internalType": "string",
          "name": "_imageLink",
          "type": "string"
        }
      ],
      "name": "doAPost",
      "outputs": [],
      "stateMutability": "nonpayable",
      "type": "function"
    },
    {
      "inputs": [
        {
          "internalType": "string",
          "name": "CompanyName",
          "type": "string"
        },
        {
          "internalType": "string",
          "name": "imgLink",
          "type": "string"
        }
      ],
      "name": "postAd",
      "outputs": [],
      "stateMutability": "payable",
      "type": "function"
    },
    {
      "inputs": [
        {
          "internalType": "string",
          "name": "_userName",
          "type": "string"
        },
        {
          "internalType": "string",
          "name": "_profilePic",
          "type": "string"
        }
      ],
      "name": "registerUser",
      "outputs": [],
      "stateMutability": "nonpayable",
      "type": "function"
    },
    {
      "inputs": [
        {
          "internalType": "string",
          "name": "_userName",
          "type": "string"
        }
      ],
      "name": "sendFriendRequest",
      "outputs": [],
      "stateMutability": "nonpayable",
      "type": "function"
    },
    {
      "inputs": [],
      "name": "allUsers",
      "outputs": [
        {
          "components": [
            {
              "internalType": "uint256",
              "name": "registrationNumber",
              "type": "uint256"
            },
            {
              "internalType": "string",
              "name": "userName",
              "type": "string"
            },
            {
              "internalType": "string",
              "name": "profilePic",
              "type": "string"
            },
            {
              "internalType": "address",
              "name": "userAddress",
              "type": "address"
            },
            {
              "internalType": "uint256",
              "name": "totalcoins",
              "type": "uint256"
            }
          ],
          "internalType": "struct socialMedia.userData[]",
          "name": "",
          "type": "tuple[]"
        }
      ],
      "stateMutability": "view",
      "type": "function"
    },
    {
      "inputs": [],
      "name": "checkRegisteredReturnRegNum",
      "outputs": [
        {
          "internalType": "uint256",
          "name": "",
          "type": "uint256"
        }
      ],
      "stateMutability": "view",
      "type": "function"
    },
    {
      "inputs": [
        {
          "internalType": "string",
          "name": "_userName",
          "type": "string"
        }
      ],
      "name": "findUser",
      "outputs": [
        {
          "internalType": "uint256",
          "name": "",
          "type": "uint256"
        }
      ],
      "stateMutability": "view",
      "type": "function"
    },
    {
      "inputs": [
        {
          "internalType": "uint256",
          "name": "registration",
          "type": "uint256"
        }
      ],
      "name": "getOthersUserStruct",
      "outputs": [
        {
          "components": [
            {
              "internalType": "uint256",
              "name": "registrationNumber",
              "type": "uint256"
            },
            {
              "internalType": "string",
              "name": "userName",
              "type": "string"
            },
            {
              "internalType": "string",
              "name": "profilePic",
              "type": "string"
            },
            {
              "internalType": "address",
              "name": "userAddress",
              "type": "address"
            },
            {
              "internalType": "uint256",
              "name": "totalcoins",
              "type": "uint256"
            }
          ],
          "internalType": "struct socialMedia.userData",
          "name": "",
          "type": "tuple"
        }
      ],
      "stateMutability": "view",
      "type": "function"
    },
    {
      "inputs": [],
      "name": "getUserName",
      "outputs": [
        {
          "internalType": "string",
          "name": "",
          "type": "string"
        }
      ],
      "stateMutability": "view",
      "type": "function"
    },
    {
      "inputs": [
        {
          "internalType": "uint256",
          "name": "regNum",
          "type": "uint256"
        }
      ],
      "name": "getUserNameFromRegistrationNumber",
      "outputs": [
        {
          "internalType": "string",
          "name": "",
          "type": "string"
        }
      ],
      "stateMutability": "view",
      "type": "function"
    },
    {
      "inputs": [],
      "name": "seeAllPosts",
      "outputs": [
        {
          "components": [
            {
              "internalType": "uint256",
              "name": "registrationNumber",
              "type": "uint256"
            },
            {
              "internalType": "uint256",
              "name": "postNumber",
              "type": "uint256"
            },
            {
              "internalType": "uint256",
              "name": "likes",
              "type": "uint256"
            },
            {
              "internalType": "address[]",
              "name": "likedAddress",
              "type": "address[]"
            },
            {
              "internalType": "string",
              "name": "imageLink",
              "type": "string"
            },
            {
              "internalType": "string[]",
              "name": "comments",
              "type": "string[]"
            },
            {
              "internalType": "uint256",
              "name": "allPostIndex",
              "type": "uint256"
            }
          ],
          "internalType": "struct socialMedia.posts[]",
          "name": "",
          "type": "tuple[]"
        }
      ],
      "stateMutability": "view",
      "type": "function"
    },
    {
      "inputs": [
        {
          "internalType": "uint256",
          "name": "allPostIndex",
          "type": "uint256"
        }
      ],
      "name": "seeCommentOnPost",
      "outputs": [
        {
          "internalType": "string[]",
          "name": "",
          "type": "string[]"
        }
      ],
      "stateMutability": "view",
      "type": "function"
    },
    {
      "inputs": [],
      "name": "seeFriendRequests",
      "outputs": [
        {
          "internalType": "string[]",
          "name": "",
          "type": "string[]"
        }
      ],
      "stateMutability": "view",
      "type": "function"
    },
    {
      "inputs": [
        {
          "internalType": "uint256",
          "name": "allPostIndex",
          "type": "uint256"
        }
      ],
      "name": "seeLikesOnPost",
      "outputs": [
        {
          "internalType": "uint256",
          "name": "",
          "type": "uint256"
        }
      ],
      "stateMutability": "view",
      "type": "function"
    },
    {
      "inputs": [],
      "name": "seeMyfriends",
      "outputs": [
        {
          "internalType": "string[]",
          "name": "",
          "type": "string[]"
        }
      ],
      "stateMutability": "view",
      "type": "function"
    },
    {
      "inputs": [],
      "name": "seeMyPosts",
      "outputs": [
        {
          "components": [
            {
              "internalType": "uint256",
              "name": "registrationNumber",
              "type": "uint256"
            },
            {
              "internalType": "uint256",
              "name": "postNumber",
              "type": "uint256"
            },
            {
              "internalType": "uint256",
              "name": "likes",
              "type": "uint256"
            },
            {
              "internalType": "address[]",
              "name": "likedAddress",
              "type": "address[]"
            },
            {
              "internalType": "string",
              "name": "imageLink",
              "type": "string"
            },
            {
              "internalType": "string[]",
              "name": "comments",
              "type": "string[]"
            },
            {
              "internalType": "uint256",
              "name": "allPostIndex",
              "type": "uint256"
            }
          ],
          "internalType": "struct socialMedia.posts[]",
          "name": "",
          "type": "tuple[]"
        }
      ],
      "stateMutability": "view",
      "type": "function"
    },
    {
      "inputs": [
        {
          "internalType": "uint256",
          "name": "friendsRegNum",
          "type": "uint256"
        }
      ],
      "name": "seeSpecificFriendsPost",
      "outputs": [
        {
          "components": [
            {
              "internalType": "uint256",
              "name": "registrationNumber",
              "type": "uint256"
            },
            {
              "internalType": "uint256",
              "name": "postNumber",
              "type": "uint256"
            },
            {
              "internalType": "uint256",
              "name": "likes",
              "type": "uint256"
            },
            {
              "internalType": "address[]",
              "name": "likedAddress",
              "type": "address[]"
            },
            {
              "internalType": "string",
              "name": "imageLink",
              "type": "string"
            },
            {
              "internalType": "string[]",
              "name": "comments",
              "type": "string[]"
            },
            {
              "internalType": "uint256",
              "name": "allPostIndex",
              "type": "uint256"
            }
          ],
          "internalType": "struct socialMedia.posts[]",
          "name": "",
          "type": "tuple[]"
        }
      ],
      "stateMutability": "view",
      "type": "function"
    },
    {
      "inputs": [],
      "name": "seeTotalFriends",
      "outputs": [
        {
          "internalType": "uint256",
          "name": "",
          "type": "uint256"
        }
      ],
      "stateMutability": "view",
      "type": "function"
    },
    {
      "inputs": [],
      "name": "showAds",
      "outputs": [
        {
          "components": [
            {
              "internalType": "uint256",
              "name": "regNum",
              "type": "uint256"
            },
            {
              "internalType": "string",
              "name": "companyName",
              "type": "string"
            },
            {
              "internalType": "string",
              "name": "imageForAd",
              "type": "string"
            }
          ],
          "internalType": "struct socialMedia.adPost[]",
          "name": "",
          "type": "tuple[]"
        }
      ],
      "stateMutability": "view",
      "type": "function"
    },
    {
      "inputs": [],
      "name": "showBalance",
      "outputs": [
        {
          "internalType": "uint256",
          "name": "",
          "type": "uint256"
        }
      ],
      "stateMutability": "view",
      "type": "function"
    },
    {
      "inputs": [],
      "name": "totalNumberOfPosts",
      "outputs": [
        {
          "internalType": "uint256",
          "name": "",
          "type": "uint256"
        }
      ],
      "stateMutability": "view",
      "type": "function"
    }
  ],
  "bytecode": "608060405234801561001057600080fd5b50614d66806100206000396000f3fe6080604052600436106101c25760003560e01c806375a0b23b116100f7578063aaa89fac11610095578063d6a47c9911610064578063d6a47c9914610612578063eb4917971461063d578063f33ed0301461067a578063fd5affd3146106a5576101c2565b8063aaa89fac1461056a578063b44affd414610595578063b493aab2146105be578063b734a689146105e7576101c2565b80638be060a3116100d15780638be060a3146104c25780639b0b67c4146104ed578063a5e737bd14610518578063a7e641ef14610541576101c2565b806375a0b23b1461044357806376b79bf71461046c57806381b2d07b14610497576101c2565b8063307f22ce116101645780634ec211801161013e5780634ec21180146103a857806357371690146103d35780635e79880c14610410578063669c9f8f1461041a576101c2565b8063307f22ce14610303578063428378f7146103405780634918600a1461037d576101c2565b80631d2e4afd116101a05780631d2e4afd146102375780632006b1c21461026057806323580a801461029d57806324912188146102c6576101c2565b8063097ef949146101c757806312958f1c146101f05780631afeda7d1461021b575b600080fd5b3480156101d357600080fd5b506101ee60048036038101906101e991906138b3565b6106ce565b005b3480156101fc57600080fd5b50610205610a36565b604051610212919061397b565b60405180910390f35b6102356004803603810190610230919061399d565b610ba0565b005b34801561024357600080fd5b5061025e6004803603810190610259919061399d565b610c71565b005b34801561026c57600080fd5b50610287600480360381019061028291906138b3565b610e08565b6040516102949190613a2e565b60405180910390f35b3480156102a957600080fd5b506102c460048036038101906102bf9190613a75565b610ec7565b005b3480156102d257600080fd5b506102ed60048036038101906102e89190613a75565b611124565b6040516102fa9190613a2e565b60405180910390f35b34801561030f57600080fd5b5061032a60048036038101906103259190613a75565b61117f565b6040516103379190613bae565b60405180910390f35b34801561034c57600080fd5b5061036760048036038101906103629190613a75565b6112aa565b6040516103749190613ec1565b60405180910390f35b34801561038957600080fd5b5061039261153d565b60405161039f9190614022565b60405180910390f35b3480156103b457600080fd5b506103bd61172a565b6040516103ca919061415d565b60405180910390f35b3480156103df57600080fd5b506103fa60048036038101906103f59190613a75565b6118b7565b60405161040791906141fc565b60405180910390f35b610418611a8d565b005b34801561042657600080fd5b50610441600480360381019061043c91906138b3565b611b62565b005b34801561044f57600080fd5b5061046a60048036038101906104659190613a75565b611c9e565b005b34801561047857600080fd5b50610481611f61565b60405161048e9190613a2e565b60405180910390f35b3480156104a357600080fd5b506104ac611f86565b6040516104b99190613a2e565b60405180910390f35b3480156104ce57600080fd5b506104d7611fcb565b6040516104e49190613a2e565b60405180910390f35b3480156104f957600080fd5b506105026120a2565b60405161050f9190613bae565b60405180910390f35b34801561052457600080fd5b5061053f600480360381019061053a91906138b3565b612193565b005b34801561054d57600080fd5b5061056860048036038101906105639190613a75565b6122a8565b005b34801561057657600080fd5b5061057f61232a565b60405161058c9190613ec1565b60405180910390f35b3480156105a157600080fd5b506105bc60048036038101906105b791906138b3565b6125c2565b005b3480156105ca57600080fd5b506105e560048036038101906105e0919061421e565b61268f565b005b3480156105f357600080fd5b506105fc612984565b6040516106099190613ec1565b60405180910390f35b34801561061e57600080fd5b50610627612c04565b6040516106349190613a2e565b60405180910390f35b34801561064957600080fd5b50610664600480360381019061065f9190613a75565b612c11565b604051610671919061397b565b60405180910390f35b34801561068657600080fd5b5061068f612d57565b60405161069c9190613bae565b60405180910390f35b3480156106b157600080fd5b506106cc60048036038101906106c79190613a75565b612e48565b005b60006106d8613033565b905060006040518060e001604052808381526020016003600085815260200190815260200160002080549050815260200160008152602001600880548060200260200160405190810160405280929190818152602001828054801561079257602002820191906000526020600020905b8160009054906101000a900473ffffffffffffffffffffffffffffffffffffffff1673ffffffffffffffffffffffffffffffffffffffff1681526020019060010190808311610748575b505050505081526020018481526020016007805480602002602001604051908101604052809291908181526020016000905b828210156108705783829060005260206000200180546107e3906142a9565b80601f016020809104026020016040519081016040528092919081815260200182805461080f906142a9565b801561085c5780601f106108315761010080835404028352916020019161085c565b820191906000526020600020905b81548152906001019060200180831161083f57829003601f168201915b5050505050815260200190600101906107c4565b50505050815260200160018054905081525090506003600083815260200190815260200160002081908060018154018082558091505060019003906000526020600020906007020160009091909190915060008201518160000155602082015181600101556040820151816002015560608201518160030190805190602001906108fb9291906134bf565b5060808201518160040190816109119190614486565b5060a082015181600501908051906020019061092e929190613549565b5060c082015181600601555050600181908060018154018082558091505060019003906000526020600020906007020160009091909190915060008201518160000155602082015181600101556040820151816002015560608201518160030190805190602001906109a19291906134bf565b5060808201518160040190816109b79190614486565b5060a08201518160050190805190602001906109d4929190613549565b5060c0820151816006015550506002600060016109ef613033565b6109f99190614587565b81548110610a0a57610a096145bb565b5b90600052602060002090600502016004016000828254610a2a91906145ea565b92505081905550505050565b606060005b600080549050811015610b895760008181548110610a5c57610a5b6145bb565b5b906000526020600020906005020160030160009054906101000a900473ffffffffffffffffffffffffffffffffffffffff1673ffffffffffffffffffffffffffffffffffffffff163373ffffffffffffffffffffffffffffffffffffffff1603610b765760008181548110610ad457610ad36145bb565b5b90600052602060002090600502016001018054610af0906142a9565b80601f0160208091040260200160405190810160405280929190818152602001828054610b1c906142a9565b8015610b695780601f10610b3e57610100808354040283529160200191610b69565b820191906000526020600020905b815481529060010190602001808311610b4c57829003601f168201915b5050505050915050610b9d565b8080610b819061461e565b915050610a3b565b506040518060200160405280600081525090505b90565b674563918244f400003414610bea576040517f08c379a0000000000000000000000000000000000000000000000000000000008152600401610be1906146d8565b60405180910390fd5b600260405180606001604052806002805490508152602001848152602001838152509080600181540180825580915050600190039060005260206000209060030201600090919091909150600082015181600001556020820151816001019081610c549190614486565b506040820151816002019081610c6a9190614486565b5050505050565b610c7a826130f1565b610cb9576040517f08c379a0000000000000000000000000000000000000000000000000000000008152600401610cb090614744565b60405180910390fd5b610cc16131a5565b15610d01576040517f08c379a0000000000000000000000000000000000000000000000000000000008152600401610cf8906147b0565b60405180910390fd5b60006040518060a001604052806001600080549050610d2091906145ea565b81526020018481526020018381526020013373ffffffffffffffffffffffffffffffffffffffff16815260200160058152509080600181540180825580915050600190039060005260206000209060050201600090919091909150600082015181600001556020820151816001019081610d9a9190614486565b506040820151816002019081610db09190614486565b5060608201518160030160006101000a81548173ffffffffffffffffffffffffffffffffffffffff021916908373ffffffffffffffffffffffffffffffffffffffff1602179055506080820151816004015550505050565b600080600090505b600080549050811015610ebc5760008181548110610e3157610e306145bb565b5b9060005260206000209060050201600101604051602001610e52919061485e565b6040516020818303038152906040528051906020012083604051602001610e7991906148a6565b6040516020818303038152906040528051906020012003610ea957600181610ea191906145ea565b915050610ec2565b8080610eb49061461e565b915050610e10565b50600090505b919050565b6000610ed1613033565b905060056000828152602001908152602001600020600460008381526020019081526020016000208381548110610f0b57610f0a6145bb565b5b90600052602060002001908060018154018082558091505060019003906000526020600020016000909190919091509081610f4691906148e8565b506000600460008381526020019081526020016000208381548110610f6e57610f6d6145bb565b5b906000526020600020018054610f83906142a9565b80601f0160208091040260200160405190810160405280929190818152602001828054610faf906142a9565b8015610ffc5780601f10610fd157610100808354040283529160200191610ffc565b820191906000526020600020905b815481529060010190602001808311610fdf57829003601f168201915b50505050509050600061100e82610e08565b90506005600082815260200190815260200160002061102c84612c11565b90806001815401808255809150506001900390600052602060002001600090919091909150908161105d9190614486565b506040518060400160405280600881526020017f61636365707465640000000000000000000000000000000000000000000000008152506004600085815260200190815260200160002085815481106110b9576110b86145bb565b5b9060005260206000200190816110cf9190614486565b50600060016110dc613033565b6110e69190614587565b815481106110f7576110f66145bb565b5b906000526020600020906005020160040160008154809291906111199061461e565b919050555050505050565b60008061113083613258565b9050600061113d84613287565b9050600360008381526020019081526020016000208181548110611164576111636145bb565b5b90600052602060002090600702016002015492505050919050565b6060600061118c83613258565b9050600061119984613287565b90506003600083815260200190815260200160002081815481106111c0576111bf6145bb565b5b9060005260206000209060070201600501805480602002602001604051908101604052809291908181526020016000905b8282101561129d578382906000526020600020018054611210906142a9565b80601f016020809104026020016040519081016040528092919081815260200182805461123c906142a9565b80156112895780601f1061125e57610100808354040283529160200191611289565b820191906000526020600020905b81548152906001019060200180831161126c57829003601f168201915b5050505050815260200190600101906111f1565b5050505092505050919050565b606060036000838152602001908152602001600020805480602002602001604051908101604052809291908181526020016000905b8282101561153257838290600052602060002090600702016040518060e0016040529081600082015481526020016001820154815260200160028201548152602001600382018054806020026020016040519081016040528092919081815260200182805480156113a557602002820191906000526020600020905b8160009054906101000a900473ffffffffffffffffffffffffffffffffffffffff1673ffffffffffffffffffffffffffffffffffffffff168152602001906001019080831161135b575b505050505081526020016004820180546113be906142a9565b80601f01602080910402602001604051908101604052809291908181526020018280546113ea906142a9565b80156114375780601f1061140c57610100808354040283529160200191611437565b820191906000526020600020905b81548152906001019060200180831161141a57829003601f168201915b5050505050815260200160058201805480602002602001604051908101604052809291908181526020016000905b82821015611511578382906000526020600020018054611484906142a9565b80601f01602080910402602001604051908101604052809291908181526020018280546114b0906142a9565b80156114fd5780601f106114d2576101008083540402835291602001916114fd565b820191906000526020600020905b8154815290600101906020018083116114e057829003601f168201915b505050505081526020019060010190611465565b505050508152602001600682015481525050815260200190600101906112df565b505050509050919050565b60606000805480602002602001604051908101604052809291908181526020016000905b8282101561172157838290600052602060002090600502016040518060a00160405290816000820154815260200160018201805461159e906142a9565b80601f01602080910402602001604051908101604052809291908181526020018280546115ca906142a9565b80156116175780601f106115ec57610100808354040283529160200191611617565b820191906000526020600020905b8154815290600101906020018083116115fa57829003601f168201915b50505050508152602001600282018054611630906142a9565b80601f016020809104026020016040519081016040528092919081815260200182805461165c906142a9565b80156116a95780601f1061167e576101008083540402835291602001916116a9565b820191906000526020600020905b81548152906001019060200180831161168c57829003601f168201915b505050505081526020016003820160009054906101000a900473ffffffffffffffffffffffffffffffffffffffff1673ffffffffffffffffffffffffffffffffffffffff1673ffffffffffffffffffffffffffffffffffffffff16815260200160048201548152505081526020019060010190611561565b50505050905090565b60606002805480602002602001604051908101604052809291908181526020016000905b828210156118ae57838290600052602060002090600302016040518060600160405290816000820154815260200160018201805461178b906142a9565b80601f01602080910402602001604051908101604052809291908181526020018280546117b7906142a9565b80156118045780601f106117d957610100808354040283529160200191611804565b820191906000526020600020905b8154815290600101906020018083116117e757829003601f168201915b5050505050815260200160028201805461181d906142a9565b80601f0160208091040260200160405190810160405280929190818152602001828054611849906142a9565b80156118965780601f1061186b57610100808354040283529160200191611896565b820191906000526020600020905b81548152906001019060200180831161187957829003601f168201915b5050505050815250508152602001906001019061174e565b50505050905090565b6118bf6135a2565b60006001836118ce9190614587565b815481106118df576118de6145bb565b5b90600052602060002090600502016040518060a001604052908160008201548152602001600182018054611912906142a9565b80601f016020809104026020016040519081016040528092919081815260200182805461193e906142a9565b801561198b5780601f106119605761010080835404028352916020019161198b565b820191906000526020600020905b81548152906001019060200180831161196e57829003601f168201915b505050505081526020016002820180546119a4906142a9565b80601f01602080910402602001604051908101604052809291908181526020018280546119d0906142a9565b8015611a1d5780601f106119f257610100808354040283529160200191611a1d565b820191906000526020600020905b815481529060010190602001808311611a0057829003601f168201915b505050505081526020016003820160009054906101000a900473ffffffffffffffffffffffffffffffffffffffff1673ffffffffffffffffffffffffffffffffffffffff1673ffffffffffffffffffffffffffffffffffffffff1681526020016004820154815250509050919050565b6000806001611a9a613033565b611aa49190614587565b81548110611ab557611ab46145bb565b5b90600052602060002090600502016004015490506000806001611ad6613033565b611ae09190614587565b81548110611af157611af06145bb565b5b9060005260206000209060050201600401819055503373ffffffffffffffffffffffffffffffffffffffff166108fc66038d7ea4c6800083611b3391906149d0565b9081150290604051600060405180830381858888f19350505050158015611b5e573d6000803e3d6000fd5b5050565b6000611b6d82610e08565b9050611b776131a5565b611bb6576040517f08c379a0000000000000000000000000000000000000000000000000000000008152600401611bad90614a5e565b60405180910390fd5b611bbf816132b6565b15611bff576040517f08c379a0000000000000000000000000000000000000000000000000000000008152600401611bf690614aca565b60405180910390fd5b60046000828152602001908152602001600020611c1a610a36565b908060018154018082558091505060019003906000526020600020016000909190919091509081611c4b9190614486565b5060006001611c58613033565b611c629190614587565b81548110611c7357611c726145bb565b5b90600052602060002090600502016004016000815480929190611c959061461e565b91905055505050565b611ca78161338f565b15611ce7576040517f08c379a0000000000000000000000000000000000000000000000000000000008152600401611cde90614b36565b60405180910390fd5b6000611cf282613258565b90506000611cff83613287565b90506001600360008481526020019081526020016000208281548110611d2857611d276145bb565b5b906000526020600020906007020160020154611d4491906145ea565b600360008481526020019081526020016000208281548110611d6957611d686145bb565b5b906000526020600020906007020160020181905550600360008381526020019081526020016000208181548110611da357611da26145bb565b5b9060005260206000209060070201600301339080600181540180825580915050600190039060005260206000200160009091909190916101000a81548173ffffffffffffffffffffffffffffffffffffffff021916908373ffffffffffffffffffffffffffffffffffffffff16021790555060006001611e21613033565b611e2b9190614587565b81548110611e3c57611e3b6145bb565b5b90600052602060002090600502016004016000815480929190611e5e9061461e565b9190505550600360008381526020019081526020016000208181548110611e8857611e876145bb565b5b90600052602060002090600702016001600360008581526020019081526020016000208381548110611ebd57611ebc6145bb565b5b90600052602060002090600702016006015481548110611ee057611edf6145bb565b5b90600052602060002090600702016000820154816000015560018201548160010155600282015481600201556003820181600301908054611f229291906135e7565b5060048201816004019081611f379190614b6c565b506005820181600501908054611f4e929190613639565b5060068201548160060155905050505050565b600060056000611f6f613033565b815260200190815260200160002080549050905090565b600080611f91613033565b90506000600182611fa29190614587565b81548110611fb357611fb26145bb565b5b90600052602060002090600502016004015491505090565b600080600090505b6000805490508110156120995760008181548110611ff457611ff36145bb565b5b906000526020600020906005020160030160009054906101000a900473ffffffffffffffffffffffffffffffffffffffff1673ffffffffffffffffffffffffffffffffffffffff163373ffffffffffffffffffffffffffffffffffffffff1603612086576000818154811061206c5761206b6145bb565b5b90600052602060002090600502016000015491505061209f565b80806120919061461e565b915050611fd3565b50600090505b90565b6060600460006120b0613033565b8152602001908152602001600020805480602002602001604051908101604052809291908181526020016000905b8282101561218a5783829060005260206000200180546120fd906142a9565b80601f0160208091040260200160405190810160405280929190818152602001828054612129906142a9565b80156121765780601f1061214b57610100808354040283529160200191612176565b820191906000526020600020905b81548152906001019060200180831161215957829003601f168201915b5050505050815260200190600101906120de565b50505050905090565b61219c816130f1565b6121db576040517f08c379a00000000000000000000000000000000000000000000000000000000081526004016121d290614744565b60405180910390fd5b60006121e5613033565b90506000811161222a576040517f08c379a000000000000000000000000000000000000000000000000000000000815260040161222190614ca0565b60405180910390fd5b816000828154811061223f5761223e6145bb565b5b9060005260206000209060050201600101908161225c9190614486565b50600060018261226c9190614587565b8154811061227d5761227c6145bb565b5b9060005260206000209060050201600401600081548092919061229f9061461e565b91905055505050565b60006122b2613033565b90506040518060400160405280600781526020017f64656c657465640000000000000000000000000000000000000000000000000081525060046000838152602001908152602001600020838154811061230f5761230e6145bb565b5b9060005260206000200190816123259190614486565b505050565b606060036000612338613033565b8152602001908152602001600020805480602002602001604051908101604052809291908181526020016000905b828210156125b957838290600052602060002090600702016040518060e00160405290816000820154815260200160018201548152602001600282015481526020016003820180548060200260200160405190810160405280929190818152602001828054801561242c57602002820191906000526020600020905b8160009054906101000a900473ffffffffffffffffffffffffffffffffffffffff1673ffffffffffffffffffffffffffffffffffffffff16815260200190600101908083116123e2575b50505050508152602001600482018054612445906142a9565b80601f0160208091040260200160405190810160405280929190818152602001828054612471906142a9565b80156124be5780601f10612493576101008083540402835291602001916124be565b820191906000526020600020905b8154815290600101906020018083116124a157829003601f168201915b5050505050815260200160058201805480602002602001604051908101604052809291908181526020016000905b8282101561259857838290600052602060002001805461250b906142a9565b80601f0160208091040260200160405190810160405280929190818152602001828054612537906142a9565b80156125845780601f1061255957610100808354040283529160200191612584565b820191906000526020600020905b81548152906001019060200180831161256757829003601f168201915b5050505050815260200190600101906124ec565b50505050815260200160068201548152505081526020019060010190612366565b50505050905090565b60006125cc613033565b905060008111612611576040517f08c379a000000000000000000000000000000000000000000000000000000000815260040161260890614ca0565b60405180910390fd5b8160008281548110612626576126256145bb565b5b906000526020600020906005020160020190816126439190614486565b5060006001826126539190614587565b81548110612664576126636145bb565b5b906000526020600020906005020160040160008154809291906126869061461e565b91905055505050565b600061269a82613258565b905060006126a783613287565b9050836040516020016126ba9190614ce6565b6040516020818303038152906040529350600084905060006126da610a36565b905080826040516020016126ef929190614d0c565b6040516020818303038152906040529550600660003373ffffffffffffffffffffffffffffffffffffffff1673ffffffffffffffffffffffffffffffffffffffff168152602001908152602001600020600086815260200190815260200160002060009054906101000a900460ff166127b1576000600161276e613033565b6127789190614587565b81548110612789576127886145bb565b5b906000526020600020906005020160040160008154809291906127ab9061461e565b91905055505b6001600660003373ffffffffffffffffffffffffffffffffffffffff1673ffffffffffffffffffffffffffffffffffffffff168152602001908152602001600020600087815260200190815260200160002060006101000a81548160ff02191690831515021790555060036000858152602001908152602001600020838154811061283f5761283e6145bb565b5b9060005260206000209060070201600501869080600181540180825580915050600190039060005260206000200160009091909190915090816128829190614486565b506003600085815260200190815260200160002083815481106128a8576128a76145bb565b5b906000526020600020906007020160016003600087815260200190815260200160002085815481106128dd576128dc6145bb565b5b90600052602060002090600702016006015481548110612900576128ff6145bb565b5b906000526020600020906007020160008201548160000155600182015481600101556002820154816002015560038201816003019080546129429291906135e7565b50600482018160040190816129579190614b6c565b50600582018160050190805461296e929190613639565b5060068201548160060155905050505050505050565b60606001805480602002602001604051908101604052809291908181526020016000905b82821015612bfb57838290600052602060002090600702016040518060e001604052908160008201548152602001600182015481526020016002820154815260200160038201805480602002602001604051908101604052809291908181526020018280548015612a6e57602002820191906000526020600020905b8160009054906101000a900473ffffffffffffffffffffffffffffffffffffffff1673ffffffffffffffffffffffffffffffffffffffff1681526020019060010190808311612a24575b50505050508152602001600482018054612a87906142a9565b80601f0160208091040260200160405190810160405280929190818152602001828054612ab3906142a9565b8015612b005780601f10612ad557610100808354040283529160200191612b00565b820191906000526020600020905b815481529060010190602001808311612ae357829003601f168201915b5050505050815260200160058201805480602002602001604051908101604052809291908181526020016000905b82821015612bda578382906000526020600020018054612b4d906142a9565b80601f0160208091040260200160405190810160405280929190818152602001828054612b79906142a9565b8015612bc65780601f10612b9b57610100808354040283529160200191612bc6565b820191906000526020600020905b815481529060010190602001808311612ba957829003601f168201915b505050505081526020019060010190612b2e565b505050508152602001600682015481525050815260200190600101906129a8565b50505050905090565b6000600180549050905090565b606060005b600080549050811015612d185760008181548110612c3757612c366145bb565b5b9060005260206000209060050201600001548303612d055760008181548110612c6357612c626145bb565b5b90600052602060002090600502016001018054612c7f906142a9565b80601f0160208091040260200160405190810160405280929190818152602001828054612cab906142a9565b8015612cf85780601f10612ccd57610100808354040283529160200191612cf8565b820191906000526020600020905b815481529060010190602001808311612cdb57829003601f168201915b5050505050915050612d52565b8080612d109061461e565b915050612c16565b506040518060400160405280600881526020017f4e6f74466f756e6400000000000000000000000000000000000000000000000081525090505b919050565b606060056000612d65613033565b8152602001908152602001600020805480602002602001604051908101604052809291908181526020016000905b82821015612e3f578382906000526020600020018054612db2906142a9565b80601f0160208091040260200160405190810160405280929190818152602001828054612dde906142a9565b8015612e2b5780601f10612e0057610100808354040283529160200191612e2b565b820191906000526020600020905b815481529060010190602001808311612e0e57829003601f168201915b505050505081526020019060010190612d93565b50505050905090565b6000612e52613033565b90506000612e5f83613287565b905060006001612e6d613033565b612e779190614587565b81548110612e8857612e876145bb565b5b90600052602060002090600502016004016000815480929190612eaa9061461e565b9190505550600360008381526020019081526020016000208181548110612ed457612ed36145bb565b5b906000526020600020906007020160008082016000905560018201600090556002820160009055600382016000612f0b9190613696565b600482016000612f1b91906136b7565b600582016000612f2b91906136f7565b60068201600090555050600360008381526020019081526020016000208181548110612f5a57612f596145bb565b5b90600052602060002090600702016001600360008581526020019081526020016000208381548110612f8f57612f8e6145bb565b5b90600052602060002090600702016006015481548110612fb257612fb16145bb565b5b90600052602060002090600702016000820154816000015560018201548160010155600282015481600201556003820181600301908054612ff49291906135e7565b50600482018160040190816130099190614b6c565b506005820181600501908054613020929190613639565b5060068201548160060155905050505050565b600080600090505b6000805490508110156130e8576000818154811061305c5761305b6145bb565b5b906000526020600020906005020160030160009054906101000a900473ffffffffffffffffffffffffffffffffffffffff1673ffffffffffffffffffffffffffffffffffffffff163373ffffffffffffffffffffffffffffffffffffffff16036130d5576001816130cd91906145ea565b9150506130ee565b80806130e09061461e565b91505061303b565b50600090505b90565b600080600090505b60008054905081101561319a576000818154811061311a576131196145bb565b5b906000526020600020906005020160010160405160200161313b919061485e565b604051602081830303815290604052805190602001208360405160200161316291906148a6565b60405160208183030381529060405280519060200120036131875760009150506131a0565b80806131929061461e565b9150506130f9565b50600190505b919050565b600080600090505b60008054905081101561324f57600081815481106131ce576131cd6145bb565b5b906000526020600020906005020160030160009054906101000a900473ffffffffffffffffffffffffffffffffffffffff1673ffffffffffffffffffffffffffffffffffffffff163373ffffffffffffffffffffffffffffffffffffffff160361323c576001915050613255565b80806132479061461e565b9150506131ad565b50600090505b90565b60006001828154811061326e5761326d6145bb565b5b9060005260206000209060070201600001549050919050565b60006001828154811061329d5761329c6145bb565b5b9060005260206000209060070201600101549050919050565b6000806132c1610a36565b905060005b600460008581526020019081526020016000208054905081101561338357816040516020016132f591906148a6565b604051602081830303815290604052805190602001206004600086815260200190815260200160002082815481106133305761332f6145bb565b5b9060005260206000200160405160200161334a919061485e565b60405160208183030381529060405280519060200120036133705760019250505061338a565b808061337b9061461e565b9150506132c6565b5060009150505b919050565b60008061339b83613258565b905060006133a884613287565b905060005b6003600084815260200190815260200160002082815481106133d2576133d16145bb565b5b9060005260206000209060070201600301805490508110156134b2573373ffffffffffffffffffffffffffffffffffffffff1660036000858152602001908152602001600020838154811061342a576134296145bb565b5b9060005260206000209060070201600301828154811061344d5761344c6145bb565b5b9060005260206000200160009054906101000a900473ffffffffffffffffffffffffffffffffffffffff1673ffffffffffffffffffffffffffffffffffffffff160361349f57600193505050506134ba565b80806134aa9061461e565b9150506133ad565b506000925050505b919050565b828054828255906000526020600020908101928215613538579160200282015b828111156135375782518260006101000a81548173ffffffffffffffffffffffffffffffffffffffff021916908373ffffffffffffffffffffffffffffffffffffffff160217905550916020019190600101906134df565b5b5090506135459190613718565b5090565b828054828255906000526020600020908101928215613591579160200282015b828111156135905782518290816135809190614486565b5091602001919060010190613569565b5b50905061359e9190613735565b5090565b6040518060a00160405280600081526020016060815260200160608152602001600073ffffffffffffffffffffffffffffffffffffffff168152602001600081525090565b8280548282559060005260206000209081019282156136285760005260206000209182015b8281111561362757825482559160010191906001019061360c565b5b5090506136359190613718565b5090565b8280548282559060005260206000209081019282156136855760005260206000209182015b8281111561368457828290816136749190614b6c565b509160010191906001019061365e565b5b5090506136929190613735565b5090565b50805460008255906000526020600020908101906136b49190613718565b50565b5080546136c3906142a9565b6000825580601f106136d557506136f4565b601f0160209004906000526020600020908101906136f39190613718565b5b50565b50805460008255906000526020600020908101906137159190613735565b50565b5b80821115613731576000816000905550600101613719565b5090565b5b80821115613755576000818161374c91906136b7565b50600101613736565b5090565b6000604051905090565b600080fd5b600080fd5b600080fd5b600080fd5b6000601f19601f8301169050919050565b7f4e487b7100000000000000000000000000000000000000000000000000000000600052604160045260246000fd5b6137c082613777565b810181811067ffffffffffffffff821117156137df576137de613788565b5b80604052505050565b60006137f2613759565b90506137fe82826137b7565b919050565b600067ffffffffffffffff82111561381e5761381d613788565b5b61382782613777565b9050602081019050919050565b82818337600083830152505050565b600061385661385184613803565b6137e8565b90508281526020810184848401111561387257613871613772565b5b61387d848285613834565b509392505050565b600082601f83011261389a5761389961376d565b5b81356138aa848260208601613843565b91505092915050565b6000602082840312156138c9576138c8613763565b5b600082013567ffffffffffffffff8111156138e7576138e6613768565b5b6138f384828501613885565b91505092915050565b600081519050919050565b600082825260208201905092915050565b60005b8381101561393657808201518184015260208101905061391b565b60008484015250505050565b600061394d826138fc565b6139578185613907565b9350613967818560208601613918565b61397081613777565b840191505092915050565b600060208201905081810360008301526139958184613942565b905092915050565b600080604083850312156139b4576139b3613763565b5b600083013567ffffffffffffffff8111156139d2576139d1613768565b5b6139de85828601613885565b925050602083013567ffffffffffffffff8111156139ff576139fe613768565b5b613a0b85828601613885565b9150509250929050565b6000819050919050565b613a2881613a15565b82525050565b6000602082019050613a436000830184613a1f565b92915050565b613a5281613a15565b8114613a5d57600080fd5b50565b600081359050613a6f81613a49565b92915050565b600060208284031215613a8b57613a8a613763565b5b6000613a9984828501613a60565b91505092915050565b600081519050919050565b600082825260208201905092915050565b6000819050602082019050919050565b600082825260208201905092915050565b6000613aea826138fc565b613af48185613ace565b9350613b04818560208601613918565b613b0d81613777565b840191505092915050565b6000613b248383613adf565b905092915050565b6000602082019050919050565b6000613b4482613aa2565b613b4e8185613aad565b935083602082028501613b6085613abe565b8060005b85811015613b9c5784840389528151613b7d8582613b18565b9450613b8883613b2c565b925060208a01995050600181019050613b64565b50829750879550505050505092915050565b60006020820190508181036000830152613bc88184613b39565b905092915050565b600081519050919050565b600082825260208201905092915050565b6000819050602082019050919050565b613c0581613a15565b82525050565b600081519050919050565b600082825260208201905092915050565b6000819050602082019050919050565b600073ffffffffffffffffffffffffffffffffffffffff82169050919050565b6000613c6282613c37565b9050919050565b613c7281613c57565b82525050565b6000613c848383613c69565b60208301905092915050565b6000602082019050919050565b6000613ca882613c0b565b613cb28185613c16565b9350613cbd83613c27565b8060005b83811015613cee578151613cd58882613c78565b9750613ce083613c90565b925050600181019050613cc1565b5085935050505092915050565b600082825260208201905092915050565b6000613d1782613aa2565b613d218185613cfb565b935083602082028501613d3385613abe565b8060005b85811015613d6f5784840389528151613d508582613b18565b9450613d5b83613b2c565b925060208a01995050600181019050613d37565b50829750879550505050505092915050565b600060e083016000830151613d996000860182613bfc565b506020830151613dac6020860182613bfc565b506040830151613dbf6040860182613bfc565b5060608301518482036060860152613dd78282613c9d565b91505060808301518482036080860152613df18282613adf565b91505060a083015184820360a0860152613e0b8282613d0c565b91505060c0830151613e2060c0860182613bfc565b508091505092915050565b6000613e378383613d81565b905092915050565b6000602082019050919050565b6000613e5782613bd0565b613e618185613bdb565b935083602082028501613e7385613bec565b8060005b85811015613eaf5784840389528151613e908582613e2b565b9450613e9b83613e3f565b925060208a01995050600181019050613e77565b50829750879550505050505092915050565b60006020820190508181036000830152613edb8184613e4c565b905092915050565b600081519050919050565b600082825260208201905092915050565b6000819050602082019050919050565b600060a083016000830151613f276000860182613bfc565b5060208301518482036020860152613f3f8282613adf565b91505060408301518482036040860152613f598282613adf565b9150506060830151613f6e6060860182613c69565b506080830151613f816080860182613bfc565b508091505092915050565b6000613f988383613f0f565b905092915050565b6000602082019050919050565b6000613fb882613ee3565b613fc28185613eee565b935083602082028501613fd485613eff565b8060005b858110156140105784840389528151613ff18582613f8c565b9450613ffc83613fa0565b925060208a01995050600181019050613fd8565b50829750879550505050505092915050565b6000602082019050818103600083015261403c8184613fad565b905092915050565b600081519050919050565b600082825260208201905092915050565b6000819050602082019050919050565b60006060830160008301516140886000860182613bfc565b50602083015184820360208601526140a08282613adf565b915050604083015184820360408601526140ba8282613adf565b9150508091505092915050565b60006140d38383614070565b905092915050565b6000602082019050919050565b60006140f382614044565b6140fd818561404f565b93508360208202850161410f85614060565b8060005b8581101561414b578484038952815161412c85826140c7565b9450614137836140db565b925060208a01995050600181019050614113565b50829750879550505050505092915050565b6000602082019050818103600083015261417781846140e8565b905092915050565b600060a0830160008301516141976000860182613bfc565b50602083015184820360208601526141af8282613adf565b915050604083015184820360408601526141c98282613adf565b91505060608301516141de6060860182613c69565b5060808301516141f16080860182613bfc565b508091505092915050565b60006020820190508181036000830152614216818461417f565b905092915050565b6000806040838503121561423557614234613763565b5b600083013567ffffffffffffffff81111561425357614252613768565b5b61425f85828601613885565b925050602061427085828601613a60565b9150509250929050565b7f4e487b7100000000000000000000000000000000000000000000000000000000600052602260045260246000fd5b600060028204905060018216806142c157607f821691505b6020821081036142d4576142d361427a565b5b50919050565b60008190508160005260206000209050919050565b60006020601f8301049050919050565b600082821b905092915050565b60006008830261433c7fffffffffffffffffffffffffffffffffffffffffffffffffffffffffffffffff826142ff565b61434686836142ff565b95508019841693508086168417925050509392505050565b6000819050919050565b600061438361437e61437984613a15565b61435e565b613a15565b9050919050565b6000819050919050565b61439d83614368565b6143b16143a98261438a565b84845461430c565b825550505050565b600090565b6143c66143b9565b6143d1818484614394565b505050565b5b818110156143f5576143ea6000826143be565b6001810190506143d7565b5050565b601f82111561443a5761440b816142da565b614414846142ef565b81016020851015614423578190505b61443761442f856142ef565b8301826143d6565b50505b505050565b600082821c905092915050565b600061445d6000198460080261443f565b1980831691505092915050565b6000614476838361444c565b9150826002028217905092915050565b61448f826138fc565b67ffffffffffffffff8111156144a8576144a7613788565b5b6144b282546142a9565b6144bd8282856143f9565b600060209050601f8311600181146144f057600084156144de578287015190505b6144e8858261446a565b865550614550565b601f1984166144fe866142da565b60005b8281101561452657848901518255600182019150602085019450602081019050614501565b86831015614543578489015161453f601f89168261444c565b8355505b6001600288020188555050505b505050505050565b7f4e487b7100000000000000000000000000000000000000000000000000000000600052601160045260246000fd5b600061459282613a15565b915061459d83613a15565b92508282039050818111156145b5576145b4614558565b5b92915050565b7f4e487b7100000000000000000000000000000000000000000000000000000000600052603260045260246000fd5b60006145f582613a15565b915061460083613a15565b925082820190508082111561461857614617614558565b5b92915050565b600061462982613a15565b91507fffffffffffffffffffffffffffffffffffffffffffffffffffffffffffffffff820361465b5761465a614558565b5b600182019050919050565b7f73656e64203520457468657265756d20746f20706f737420612061647665727460008201527f6973656d656e7400000000000000000000000000000000000000000000000000602082015250565b60006146c2602783613907565b91506146cd82614666565b604082019050919050565b600060208201905081810360008301526146f1816146b5565b9050919050565b7f557365726e616d65206e6f7420617661696c61626c6500000000000000000000600082015250565b600061472e601683613907565b9150614739826146f8565b602082019050919050565b6000602082019050818103600083015261475d81614721565b9050919050565b7f4164647265737320616c7265616479207573656420746f207265676973746572600082015250565b600061479a602083613907565b91506147a582614764565b602082019050919050565b600060208201905081810360008301526147c98161478d565b9050919050565b600081905092915050565b600081546147e8816142a9565b6147f281866147d0565b9450600182166000811461480d576001811461482257614855565b60ff1983168652811515820286019350614855565b61482b856142da565b60005b8381101561484d5781548189015260018201915060208101905061482e565b838801955050505b50505092915050565b600061486a82846147db565b915081905092915050565b6000614880826138fc565b61488a81856147d0565b935061489a818560208601613918565b80840191505092915050565b60006148b28284614875565b915081905092915050565b6000815490506148cc816142a9565b9050919050565b60008190508160005260206000209050919050565b8181036148f65750506149ce565b6148ff826148bd565b67ffffffffffffffff81111561491857614917613788565b5b61492282546142a9565b61492d8282856143f9565b6000601f83116001811461495c576000841561494a578287015490505b614954858261446a565b8655506149c7565b601f19841661496a876148d3565b9650614975866142da565b60005b8281101561499d57848901548255600182019150600185019450602081019050614978565b868310156149ba57848901546149b6601f89168261444c565b8355505b6001600288020188555050505b5050505050505b565b60006149db82613a15565b91506149e683613a15565b92508282026149f481613a15565b91508282048414831517614a0b57614a0a614558565b5b5092915050565b7f596f7520617265206e6f74207265676973747265640000000000000000000000600082015250565b6000614a48601583613907565b9150614a5382614a12565b602082019050919050565b60006020820190508181036000830152614a7781614a3b565b9050919050565b7f416c72656164792073656e740000000000000000000000000000000000000000600082015250565b6000614ab4600c83613907565b9150614abf82614a7e565b602082019050919050565b60006020820190508181036000830152614ae381614aa7565b9050919050565b7f596f75206861766520616c7265616479206c696b656400000000000000000000600082015250565b6000614b20601683613907565b9150614b2b82614aea565b602082019050919050565b60006020820190508181036000830152614b4f81614b13565b9050919050565b600081549050614b65816142a9565b9050919050565b818103614b7a575050614c52565b614b8382614b56565b67ffffffffffffffff811115614b9c57614b9b613788565b5b614ba682546142a9565b614bb18282856143f9565b6000601f831160018114614be05760008415614bce578287015490505b614bd8858261446a565b865550614c4b565b601f198416614bee876142da565b9650614bf9866142da565b60005b82811015614c2157848901548255600182019150600185019450602081019050614bfc565b86831015614c3e5784890154614c3a601f89168261444c565b8355505b6001600288020188555050505b5050505050505b565b7f4e6f742072656769737465726564000000000000000000000000000000000000600082015250565b6000614c8a600e83613907565b9150614c9582614c54565b602082019050919050565b60006020820190508181036000830152614cb981614c7d565b9050919050565b7f203a200000000000000000000000000000000000000000000000000000000000815250565b6000614cf182614cc0565b600382019150614d018284614875565b915081905092915050565b6000614d188285614875565b9150614d248284614875565b9150819050939250505056fea2646970667358221220b9250040af05876727b3e530ba495d2b2fe53f3e949df38568f51bd91950021364736f6c63430008120033",
  "linkReferences": {},
  "deployedLinkReferences": {}
}